:10000000EAC0000010C100000EC100000CC10000D9
:100010000AC1000008C1000006C1000004C10000C0
:1000200002C1000000C10000FEC00000FCC00000D2
:10003000FAC00000F8C00000F6C00000F4C00000E4
:100040000C94F40CF0C000000C94630D0C943E0D65
:10005000EAC00000E8C00000E6C00000E4C0000004
:100060000C948F0BE0C00000F101EC01340234026B
:1000700034023402E1017B02D5017B02FF01EC0175
:10008000F601F1017B027B027B027B027B027B0299
:100090007B027B027B027B027B027B027B020C02E7
:1000A0007B020C027B027B027B027B027B027B02D7
:1000B0007B027B027B027B02F1013402F101F10140
:1000C0007B020C02D5017B027B027B027B027B025E
:1000D0007B027B027B027B0262026202620262029C
:1000E0007B027B021402F1016F02F101EC01F101CC
:1000F000F101F101F101F101F1010C020C027B02AD
:100100007B027B02F1017B027B027B027B027B0292
:100110007B020C027B02F101EC014D021F027B020B
:100120007B02280228020C023033253032580D00A1
:1001300030330D00303A2034392030322030310055
:10014000415453502025750D000000000024002765
:10015000002A0000000000250028002B00040404F1
:100160000404040404020202020202030303030360
:10017000030102040810204080010204081020013D
:10018000020408102000000008000201000003041F
:100190000700000000000000004E414E494E495447
:1001A00059494E46CDCCCC3D0AD7233C17B7D13860
:1001B00077CC2B329595E6241FB14F0A00002041E1
:1001C0000000C84200401C4620BCBE4CCA1B0E5A50
:1001D000AEC59D74950D11241FBECFEFD8E0DEBFD4
:1001E000CDBF11E0A0E0B1E0E6E1FAE202C0059087
:1001F0000D92A43DB107D9F723E0A4EDB1E001C011
:100200001D92AD30B207E1F710E0CBEED0E004C0B4
:100210002197FE010E940B0FCA3ED107C9F70E9429
:10022000D90D0C940915ECCE80E090E0892B29F0D3
:100230000E94920A81110C94000008950F931F935D
:10024000DC01ED91FC910288F389E02D08E813E1CF
:1002500020E040E050E064EA71E009951F910F91C1
:1002600008956F37C8F46150462F477020E830E09A
:1002700002C0359527954A95E2F7E62FF0E033E086
:10028000F595E7953A95E1F7E80FF91F8481282362
:1002900081E019F480E0089581E008950F931F93A1
:1002A000CF93DF93CDB7DEB7A0970FB6F894DEBF3C
:1002B0000FBECDBFDC01ED91FC910288F389E02DEA
:1002C00008EE13E020E2AE014F5F5F4F6EE671E093
:1002D0000995A0960FB6F894DEBF0FBECDBFDF9193
:1002E000CF911F910F9108950F931F93CF93DF9399
:1002F000CDB7DEB7A0970FB6F894DEBF0FBECDBF67
:10030000DC01ED91FC910288F389E02D08E813E10E
:1003100020E2AE014F5F5F4F63E771E00995A09661
:100320000FB6F894DEBF0FBECDBFDF91CF911F9106
:100330000F910895CF92DF92EF92FF920F931F9348
:10034000CF93DF93CDB7DEB7C054D1090FB6F89481
:10035000DEBF0FBECDBF7C016B018A01DC01ED91D8
:10036000FC9100A4F1A5E02D20E4AE014F5F5F4FAA
:100370000995BC01892B41F4C70160DFF701838136
:100380008F5F838380E0C3C0D601EC918E2F90E015
:100390000497F701A081B1818036910508F0ABC0C8
:1003A0008C5C9F4FFC010C940B0FD296ED91FC914D
:1003B000D397C7010995BC017695679576956795A2
:1003C000A2C0D496ED91FC91D597C7010995F3E0B1
:1003D0008F9FB001112497C0D696ED91FC91D797CD
:1003E0001FC0D096ED91FC91D19789C0D296ED9126
:1003F000FC91D397C701099564E670E01DC0D496BF
:10040000ED91FC91D597C70109958695282F30E08D
:10041000B9016054710977C0D296ED91FC91D397E0
:10042000C7010995BC016FC0D296ED91FC91D3979D
:10043000C701099568EE73E00E94A60E64C0D296CB
:10044000ED91FC91D397C701099564E170E0F4CF79
:10045000D496ED91FC91D597C7010995282F30E0EE
:10046000B9016D5771094FC0D496ED91FC91D597A4
:10047000C701099590E08058910944E6489F900192
:10048000499F300D112437FF02C021583F4FB90159
:10049000660F672F661F770B36C0D296ED91FC91E1
:1004A000D397C7010995A0E0B0E0BC01CD01795612
:1004B0008109910920E830E040E050E00E94EF0E11
:1004C000B90121C0D296ED91FC91D397C70109954E
:1004D0006AE070E00E94A60E6852710914C0D296BC
:1004E000ED91FC91D397C70109959C01A8ECB0E070
:1004F0000E94FA1497CFD496ED91FC91D597C7013D
:100500000995682F70E0D8016D937C9381E0C05C01
:10051000DF4F0FB6F894DEBF0FBECDBFDF91CF9196
:100520001F910F91FF90EF90DF90CF9008950F9360
:100530001F93CF93DF93CDB7DEB7A0970FB6F89494
:10054000DEBF0FBECDBF8C01DC01ED91FC9104A498
:10055000F5A5E02D69E771E00995D801ED91FC91D1
:1005600002A4F3A5E02D28EE33E040E2BE016F5F68
:100570007F4FC8010995A0960FB6F894DEBF0FBE55
:10058000CDBFDF91CF911F910F910895BF92CF9270
:10059000DF92EF92FF920F931F93CF93DF936C0143
:1005A000E42EB62E8901EB01F12C8C2F8B198E15C0
:1005B00078F46991D601ED91FC910284F385E02DE8
:1005C000A801C60109958111F3940E5F1F4FEDCF6D
:1005D0008F2DDF91CF911F910F91FF90EF90DF90C2
:1005E000CF90BF9008950F931F93CF93DF9300D0C8
:1005F0001F92CDB7DEB78C016983D801ED91FC91D4
:1006000000A0F1A1E02DC8014A835B830995D801C0
:10061000ED91FC9102A0F3A1E02D4A815B81BE0126
:100620006F5F7F4FC80109950F900F900F90DF917A
:10063000CF911F910F910895CF92DF92EF92FF9289
:100640000F931F93CF93DF931F92CDB7DEB76C014B
:100650007A01DC01ED91FC9104A4F5A5E02D29833C
:100660000995D601ED91FC9106A4F7A5E02DC601F0
:100670000995D601ED91FC9102A4F3A5E02D980116
:100680004981B701C6010F90DF91CF911F910F9162
:10069000FF90EF90DF90CF900994FC0190818181D1
:1006A0002FEB290F263010F497500AC02FE9290F9D
:1006B000263010F4975204C020ED290F2A30B8F4E8
:1006C0002FEB280F263010F487500AC02FE9280F8F
:1006D000263010F4875204C020ED280F2A3038F459
:1006E0008F7040E1949F90011124822B089580E047
:1006F0000895FC01919180E020E030E09923F1F031
:100700008430E4F44FEB490F463010F497500CC09E
:100710004FE9490F463010F4975206C0903261F00D
:1007200040ED490F4A3050F444E0220F331F4A9500
:10073000E1F79F70292B8F5F9191E0CFC901089558
:10074000CB01ABDF90E088970895CB01A6CFCB011A
:10075000D0CFCB01A2DF24E6829FC00111246FEF2E
:1007600070E00E94A60E862F08950895FC018489EA
:10077000958908950F931F93CF93DF93CDB7DEB77D
:1007800060970FB6F894DEBF0FBECDBFDC01ED91D0
:10079000FC910288F389E02D08E813E120E1AE0125
:1007A0004F5F5F4F6DE771E00995882349F06FE374
:1007B00070E0CE0101960E94150F21E0892B09F00F
:1007C00020E0822F60960FB6F894DEBF0FBECDBF3B
:1007D000DF91CF911F910F910895CF92DF92FF92F9
:1007E0000F931F93CF93DF93CDB7DEB7A0970FB6CC
:1007F000F894DEBF0FBECDBF6C0183E0F82ED601AA
:10080000ED91FC910288F389E02D08EC10E020E2E4
:10081000AE014F5F5F4F6EE671E0C6010995882318
:10082000A1F060E270E0CE0101960E94150FFC017C
:10083000892B59F0248120538281880F8056982F6C
:10084000990F990F890F820F04C0FA94F110D7CF36
:1008500080E0A0960FB6F894DEBF0FBECDBFDF914B
:10086000CF911F910F91FF90DF90CF900895FB01E2
:100870002081822F022E000C990BC0970A9790F0CE
:100880002D3281F06DE070E0CF010E94150F0097CE
:1008900059F0FC013196DC0111962C912A3041F778
:1008A0003196E6CFCF01089580E090E008956F92F1
:1008B0007F928F929F92AF92BF92CF92DF92EF92F0
:1008C000FF920F931F93CF93DF93CDB7DEB7C05442
:1008D000D1090FB6F894DEBF0FBECDBF7C013B013E
:1008E0005A014801672B09F445C0DC01ED91FC91E8
:1008F0000288F389E02D08E813E120E4AE014F5FA0
:100900005F4F65E871E00995882309F4A5C0BE0131
:100910006F5F7F4FC701ABDF009709F49DC06C018B
:10092000BFEFCB1ADB0A0E945D0FF3019183808336
:100930006CE270E0C6010E94150F009709F48CC0AC
:100940006C01FFEFCF1ADF0AC6010E945D0FD301D1
:1009500013969C938E9312976CE270E0C6010E94EE
:10096000150F009709F478C001960E945D0FF301FE
:1009700095838483A114B10409F445C0D701ED9196
:10098000FC910288F389E02D08E813E120E4AE0130
:100990004F5F5F4F6CE871E0C7010995882309F448
:1009A0005BC0BE016F5F7F4FC70161DF009709F435
:1009B00053C06C01BFEFCB1ADB0A0E945D0FF5013B
:1009C000918380836CE270E0C6010E94150F00974E
:1009D00009F442C06C01FFEFCF1ADF0AC6010E9482
:1009E0005D0FD50113969C938E9312976CE270E085
:1009F000C6010E94150F009779F101960E945D0FC4
:100A0000F501958384838114910421F1D701ED913F
:100A1000FC910288F389E02D08E813E120E4AE019F
:100A20004F5F5F4F6DE771E0C70109958823A1F023
:100A3000BE016F5F7F4FC7011ADF009769F00E9408
:100A40005D0F84589F4C62E270E00E94BA0EF40180
:100A50007183608381E001C080E0C05CDF4F0FB62E
:100A6000F894DEBF0FBECDBFDF91CF911F910F91E4
:100A7000FF90EF90DF90CF90BF90AF909F908F90BE
:100A80007F906F900895FC01158A148A2CC60F93ED
:100A90001F93CF93DF93CDB7DEB728970FB6F894A7
:100AA000DEBF0FBECDBF8C0188E0E0E0F1E0DE01EB
:100AB000119601900D928A95E1F769817A818B8177
:100AC0009C81A1D5D801ED91FC9106A0F7A1E02D64
:100AD000C8010995811117C06D817E818F8198852C
:100AE00092D5D801ED91FC9106A0F7A1E02DC801A7
:100AF00028960FB6F894DEBF0FBECDBFDF91CF9121
:100B00001F910F91099428960FB6F894DEBF0FBE7F
:100B1000CDBFDF91CF911F910F9108959F92AF921A
:100B2000BF92CF92DF92EF92FF920F931F93CF93DA
:100B3000DF937C016B015A01922ED701ED91FC915C
:100B400002A4F3A5E02D28EE33E0492DB501C7013D
:100B50000995882319F1850164E971E0C8010E94B3
:100B6000200FEC01892B49F38E010D5F1F4FC80147
:100B700094DDD6019C91911101C08C93F601908176
:100B80008913EACFD70113961C928E010B5F1F4F7A
:100B90008D81803209F7CE01069602C080E090E098
:100BA000DF91CF911F910F91FF90EF90DF90CF9049
:100BB000BF90AF909F9008952F923F924F925F9277
:100BC0006F927F929F92AF92BF92CF92DF92EF92FD
:100BD000FF920F931F93CF93DF93CDB7DEB7C65429
:100BE000D1090FB6F894DEBF0FBECDBF8C015B01FB
:100BF00086E0E8E0F1E0DE01AF5BBF4F01900D92CF
:100C00008A95E1F7D80155961C921E9254977E0161
:100C1000B1E4EB0EF11C3701E6E06E0E711CCE0163
:100C200001966C01D7016D917D917D01D801ED9107
:100C3000FC9104A4F5A5E02DC8010995D801ED911A
:100C4000FC9102A4F3A5E02D28E833E140E4B601CD
:100C5000C8010995811102C080E099C0E614F7042B
:100C600009F7A114B10459F480E1F8013496DF01C9
:100C70001D928A95E9F77F01912CB12C63C0BF9238
:100C8000AF9280E491E09F938F93DF92CF920E9486
:100C90009C0FD801ED91FC9104A4F5A5E02DB601BF
:100CA000C8010995D801ED91FC9102A4F3A5E02DAE
:100CB00028E833E140E4B601C80109950F900F9090
:100CC0000F900F900F900F908111CECF68E971E0D7
:100CD000C6010E94200F892B39F6BECF3201B3E046
:100CE0006B0E711CC301D9DC89111CC03201E5E017
:100CF0006E0E711C13015201F1E1AF0EB11C270100
:100D0000F1018081803261F4C1010196C6DCD2011B
:100D10008D932D01B3E02B0E311C2A143B0481F777
:100D2000BB24B39464E971E0C3010E94200F2C013D
:100D3000892BA1F6F0E29F0E84E0E80EF11C90E80A
:100D40009916C9F0D801ED91FC9100A0F1A1E02D18
:100D5000692DC8010995D801ED91FC9102A4F3A574
:100D6000E02D28E833E140E4B601C8010995882365
:100D700009F33601D7CFBB2049F082E090E0D801DB
:100D800055969C938E93549713961C928B2DCA5B09
:100D9000DF4F0FB6F894DEBF0FBECDBFDF91CF910E
:100DA0001F910F91FF90EF90DF90CF90BF90AF9089
:100DB0009F907F906F905F904F903F902F900895FD
:100DC0009F92AF92BF92CF92DF92EF92FF920F93DA
:100DD0001F93CF93DF93CDB7DEB7C058D1090FB6BD
:100DE000F894DEBF0FBECDBF6C01A62E972EB42E99
:100DF00000E010E0CE0101967C019801011511057B
:100E000019F088E291E002C080E391E03F932F93D4
:100E10009F938F93FF92EF920E949C0FD601ED91CA
:100E2000FC9104A4F5A5E02DB701C6010995D601F2
:100E3000ED91FC9102A4F3A5E02D28EE33E040E80B
:100E4000B701C60109950F900F900F900F900F906A
:100E50000F90882381F16CEA71E0C701F1D7892BEB
:100E600051F564EB71E0C701EBD7009751F1CA2C43
:100E7000D92CF12CFB1431F1FC012081222311F13A
:100E80008C010A5F1F4FFC0186818D3049F46AE3B3
:100E900070E0C801CAD70097A9F08C010E5F1F4F00
:100EA000C80127DC009771F0F394D6018D939D93D0
:100EB0006D01C801DFCF0F5F1F4F0630110509F02C
:100EC0009CCFF12C8F2DC058DF4F0FB6F894DEBFAA
:100ED0000FBECDBFDF91CF911F910F91FF90EF908B
:100EE000DF90CF90BF90AF909F9008954F925F9208
:100EF0006F927F92AF92BF92CF92DF92EF92FF926A
:100F00000F931F93CF93DF936C018B0159018FB720
:100F1000F8944090D4015090D5016090D601709023
:100F2000D7018FBFD0E0C0E0E42EF12C81E0E81AB9
:100F3000F10888ED91E0EAD2892BC9F188ED91E0C2
:100F4000C3D2D82F0115110581F16C2F70E06E15F9
:100F50007F057CF78E32A1F4C33018F19801260F7B
:100F6000371FF901319780818E32D9F43197808112
:100F70008E32B9F4C0E088E8A82E83E1B82ED9CF2C
:100F80008D3021F08A3011F0803259F4CC2389F26F
:100F9000F801E60FF71F319780818D3051F28A30CA
:100FA00041F2F801E60FF71FD083CF5FC2CFDE33E7
:100FB000C9F02FB7F8948091D4019091D501A091F8
:100FC000D601B091D7012FBF84199509A816B9068B
:100FD0004CF0D601ED91FC9106A4F7A5E02DC601D9
:100FE0000995A7CF0115110521F0F801EC0FF11DAE
:100FF00010828C2FDF91CF911F910F91FF90EF9076
:10100000DF90CF90BF90AF907F906F905F904F90A8
:1010100008954F925F926F927F928F929F92AF92BC
:10102000BF92CF92DF92EF92FF920F931F93CF93D5
:10103000DF935C017B01442E85E0582E4B0184E058
:10104000880E911CD501ED91FC910288F389E02D69
:1010500008E813E1242DA70167EB71E0C5010995AC
:1010600081110AC064E670E080E090E085D45A9473
:101070005110E8CF80E03CC0C7013BDB8C0164E34A
:1010800071E0C40137D7009769F30B9637010196D9
:10109000EC01019628812032D9F36301BFEF6B1A6E
:1010A0007B0ACE01FADAF6018083FE0121962081C7
:1010B0002F7DD9F7CF01EC01288101962032D9F399
:1010C000211107C06AE370E0CE01AFD60097F9F6B0
:1010D00003C02D3011F7F6CFD60111961C926E1871
:1010E0007F08035011096016710609F0BBCF81E03B
:1010F000DF91CF911F910F91FF90EF90DF90CF90F4
:10110000BF90AF909F908F907F906F905F904F9027
:101110000895EF92FF920F931F93CF93DF93CDB774
:10112000DEB7A0970FB6F894DEBF0FBECDBF7C012F
:10113000DC01ED91FC910288F389E02D08E813E1D0
:1011400020E2AE014F5F5F4F6DEB71E009958823A0
:1011500049F0BE016F5F7F4FC70189DB009711F037
:10116000A9D603C060E070E0CB01A0960FB6F8945A
:10117000DEBF0FBECDBFDF91CF911F910F91FF90CA
:10118000EF900895EF92FF920F931F93CF93DF9309
:10119000CDB7DEB728970FB6F894DEBF0FBECDBF30
:1011A0008C011F926F93DC0112968C911F928F938A
:1011B00083EC91E09F938F93FE0131967F01FF9323
:1011C000EF9358D6D801ED91FC9104A4F5A5E02D3C
:1011D000B701C80109950FB6F894DEBF0FBECDBFA9
:1011E00028960FB6F894DEBF0FBECDBFDF91CF912A
:1011F0001F910F91FF90EF9008956115710579F09F
:10120000FB0101900020E9F73197AF01461B570B16
:10121000DC01ED91FC910280F381E02D099480E0E6
:1012200090E008954F925F926F927F92AF92BF923B
:10123000CF92DF92EF92FF920F931F93CF93DF93A2
:10124000CDB7DEB7A1970FB6F894DEBF0FBECDBF06
:101250006C015A017B016DEC71E088ED91E0CDDF0E
:1012600019A29501A7018E010F5D1F4F8AE0482E3C
:10127000512C612C712CCA01B901A30192018DD5A9
:10128000605DF80162938F0121153105410551051B
:1012900091F7BF0188ED91E0B0DFE091D801F091C6
:1012A000D9010190F081E02D6DE088ED91E0099584
:1012B00062E370E080E090E05FD315D2B501C70132
:1012C000A2D1C6010E941E0181E0A1960FB6F8943A
:1012D000DEBF0FBECDBFDF91CF911F910F91FF9069
:1012E000EF90DF90CF90BF90AF907F906F905F9026
:1012F0004F90089588ED91E080CFFC01848DDF014F
:10130000A80FB11DA35ABF4F2C91848D90E0019678
:101310008F739927848FA689B7892C93A089B18967
:101320008C9180648C93938D848D981306C0028871
:10133000F389E02D80818F7D8083089585ED8093F2
:10134000BC008091BC0084FDFCCF1092C3020895C4
:1013500040919D02262F30E0240F311D21323105AE
:10136000DCF42091C3022430C9F4FC0180E090E059
:10137000861758F430919D022191DC01A558BD4F8C
:10138000A30FB11D2C930196F3CF80919D02680F9E
:1013900060939D0280E0089581E0089582E00895C1
:1013A00008958FEF9FEF08958FEF9FEF089580913D
:1013B0007A0290E09195819591090895CF93DF93FA
:1013C00000D0CDB7DEB7CB01642F49835A83C0DF8D
:1013D0004981842F5A81952F0F900F90DF91CF91E3
:1013E0000895CF93DF931F92CDB7DEB7698361E095
:1013F000CE010196ADDF81E090E00F90DF91CF91BB
:1014000008953FB7F8948091760290917702A09169
:101410007802B091790226B5A89B05C02F3F19F03C
:101420000196A11DB11D3FBFBA2FA92F982F882764
:10143000820F911DA11DB11DBC01CD0142E0660FBF
:10144000771F881F991F4A95D1F70895CF92DF9291
:10145000EF92FF920F931F93CF93DF936C017A016A
:101460008B01C0E0D0E0CE15DF0589F0D8016D9189
:101470008D01D601ED91FC910190F081E02DC60126
:101480000995892B11F47E0102C02196ECCFC7018A
:10149000DF91CF911F910F91FF90EF90DF90CF9050
:1014A0000895089580E090E00895FC01538D448DE7
:1014B000252F30E0842F90E0821B930B541710F0FF
:1014C000CF96089501970895FC01918D828D98170C
:1014D00061F0828DDF01A80FB11D5D968C91928D18
:1014E0009F5F9F73928F90E008958FEF9FEF089515
:1014F000FC01918D828D981731F0828DE80FF11DDE
:10150000858D90E008958FEF9FEF0895FC01918DF8
:10151000228D892F90E0805C9F4F821B91098F73F1
:101520009927089588ED91E0F1DF21E0892B09F4F6
:1015300020E0822F089575D4EF92FF920F931F93AE
:10154000CF93DF93EC0181E0888F9B8D8C8D981376
:1015500005C0E889F989808185FD23C0F62E0B8DB1
:1015600010E00F5F1F4F0F731127E02E8C8DE812D4
:101570000BC00FB607FCFACFE889F989808185FF97
:10158000F5CFCE01BADEF2CF8B8DFE01E80FF11D53
:10159000E35AFF4FF0820B8FEA89FB8980818062DA
:1015A00007C0EE89FF896083E889F98980818064BA
:1015B000808381E090E0DF91CF911F910F91FF90A8
:1015C000EF900895CF93DF93EC01888D8823C1F0CD
:1015D000EA89FB89808185FD05C0A889B9898C913C
:1015E00086FD0EC00FB607FCF5CF808185FFF2CFD8
:1015F000A889B9898C9185FFEDCFCE017EDEE8CF39
:10160000DF91CF910895CF92DF92EF92FF926B011D
:101610007C01E091E801F091E90182E08083C1144E
:1016200081EED806E104F104A9F060E079E08DE3F1
:1016300090E0A7019601B1D3DA01C9010197A10990
:10164000B109B695A795979587959C01211580E1DD
:101650003807B0F0E091E801F091E901108260E80C
:1016600074E88EE190E0A701960197D3DA01C901F1
:101670000197A109B109B695A795979587959C0102
:10168000E091E401F091E5013083E091E601F09111
:10169000E70120831092F001E091EC01F091ED015F
:1016A00086E08083E091EA01F091EB018081806126
:1016B0008083E091EA01F091EB0180818860808372
:1016C000E091EA01F091EB01808180688083E091F4
:1016D000EA01F091EB0180818F7D8083FF90EF9094
:1016E000DF90CF90089588ED91E06CDFE8EDF1E0B8
:1016F000A289B3898C918F7E8C93A289B3898C91B6
:10170000877F8C93A289B3898C918F778C93A289E0
:10171000B3898C918F7D8C93828D818F08951F92D8
:101720000F920FB60F9211242F933F934F935F9315
:101730006F937F938F939F93AF93BF93EF93FF9399
:101740008091B900887F803609F49CC068F58832A2
:1017500009F45BC090F4803109F454C038F4882354
:1017600009F4F6C0883009F44DC0F5C0883109F499
:101770004CC0803209F45DC0EEC0803409F468C00A
:1017800048F4803309F455C0883309F0E4C08093ED
:10179000C202D8C0803509F44FC0883509F45DC055
:1017A000883409F0D8C0D6C0883909F4C7C0A8F475
:1017B000883709F467C038F4883609F463C0803785
:1017C00009F460C0C8C0883809F4B8C0803909F489
:1017D0005FC0803809F0BFC05BC0803B09F486C0A1
:1017E00038F4803A09F466C0883A09F47FC0B3C07F
:1017F000803C09F4A7C0883C09F4A4C0883B09F4E4
:101800008AC0A9C08091E80210C09091E70280913F
:10181000E602981770F5E091E70281E08E0F809361
:10182000E702F0E0EA53FD4F80818093BB0085EC36
:1018300086C08093C2028EC0E091E70281E08E0FE5
:101840008093E7028091BB00F0E0EA53FD4F808374
:101850009091E7028091E6026EC0E091E70281E09C
:101860008E0F8093E7028091BB00F0E0EA53FD4FBA
:1018700080838091C50281116DC081E08093C40294
:1018800084EA61C083E08093C3021092C102CFCF8B
:101890008091C102803208F051C0E091C10281E024
:1018A0008E0F8093C1028091BB00F0E0EF55FD4F99
:1018B0008083BDCF85EC8093BC001092C3028091E1
:1018C000C102803230F4E091C102F0E0EF55FD4FEB
:1018D00010826091C10270E0E0919F02F091A0023D
:1018E00081EA92E009951092C10235C084E08093AC
:1018F000C30210929E0210929D02E0919B02F09111
:101900009C02099580919D02811105C081E0809320
:101910009D0210927B02E0919E0281E08E0F8093E7
:101920009E02F0E0E558FD4F80818093BB009091CE
:101930009E0280919D02981708F479CF85E88093E4
:10194000BC0009C085EC8093BC001092C30203C0A8
:101950001092C202F3DCFF91EF91BF91AF919F9182
:101960008F917F916F915F914F913F912F910F9048
:101970000FBE0F901F9018958F929F92AF92BF92BB
:10198000CF92DF92EF92FF926B017C013ADD4B0127
:101990005C01C114D104E104F104E9F032DDDC01A1
:1019A000CB0188199909AA09BB09883E9340A10572
:1019B000B10578F321E0C21AD108E108F10888EEF8
:1019C000880E83E0981EA11CB11CC114D104E1044F
:1019D000F10421F7DECFFF90EF90DF90CF90BF9022
:1019E000AF909F908F9008951F920F920FB60F9215
:1019F00011242F933F938F939F93AF93BF93809125
:101A0000D4019091D501A091D601B091D701309128
:101A1000750223E0230F2D3720F40196A11DB11D7F
:101A200005C026E8230F0296A11DB11D2093750263
:101A30008093D4019093D501A093D601B093D701A0
:101A40008091760290917702A0917802B09179020C
:101A50000196A11DB11D8093760290937702A09309
:101A60007802B0937902BF91AF919F918F913F918E
:101A70002F910F900FBE0F901F9018951F920F92ED
:101A80000FB60F9211242F933F934F935F936F9351
:101A90007F938F939F93AF93BF93EF93FF9388EDC3
:101AA00091E02BDCFF91EF91BF91AF919F918F91CE
:101AB0007F916F915F914F913F912F910F900FBE4A
:101AC0000F901F9018951F920F920FB60F9211242E
:101AD0002F938F939F93EF93FF93E091E801F09101
:101AE000E9018081E091EE01F091EF0182FD12C0E9
:101AF00090818091F1018F5F8F732091F2018217A5
:101B000051F0E091F101F0E0E852FE4F958F8093A3
:101B1000F10101C08081FF91EF919F918F912F91F1
:101B20000F900FBE0F901F901895E9EEF2E0138210
:101B3000128288EE93E0A0E0B0E084839583A683D0
:101B4000B78322E131E031832083E8EDF1E01382B5
:101B5000128284839583A683B78384E291E0918384
:101B6000808385EC90E09587848784EC90E097876C
:101B7000868780EC90E0918B808B81EC90E0938B5A
:101B8000828B82EC90E0958B848B86EC90E0978B37
:101B9000868B118E128E138E148EE5EFF2E086E3A3
:101BA00091E09183808381E082831382158A148A75
:101BB0000895CF93DF9300D0CDB7DEB7789484B586
:101BC000826084BD84B5816084BD85B5826085BD39
:101BD00085B5816085BD80916E00816080936E00C7
:101BE00010928100809181008260809381008091B9
:101BF000810081608093810080918000816080936A
:101C000080008091B10084608093B1008091B00029
:101C100081608093B00080917A00846080937A0024
:101C200080917A00826080937A0080917A0081604E
:101C300080937A0080917A00806880937A00109275
:101C4000C1000EE711E0F8012491EAE6EE2EE1E092
:101C5000FE2EF7018491882399F090E0880F991F58
:101C6000FC01E75BFE4FA591B4918D5A9E4FFC019C
:101C7000459154918FB7F8949C91292B2C938FBF49
:101C800085EF92E00E94470560E070E085EF92E00A
:101C90000E94DC058823C1F362E9C62E61E0D62EDE
:101CA000AE014F5F5F4F6CE085EF92E00E94F30260
:101CB000882309F448C029813A81F6019491F801FA
:101CC0004491F7018491882309F43DC0992339F1A7
:101CD000933091F038F49130A9F0923001F594B539
:101CE0009F7D12C0973091F09830A1F09430B9F4F4
:101CF000909180009F7D03C0909180009F7790938A
:101D000080000DC094B59F7794BD09C09091B0003C
:101D10009F7703C09091B0009F7D9093B00090E0BA
:101D2000880F991F8D5A9E4FFC01A591B4918FB7D2
:101D3000F8949C91293B3B401CF44095492301C0F9
:101D4000492B4C938FBF0E941401AACFAA1BBB1B27
:101D500051E107C0AA1FBB1FA617B70710F0A61BAB
:101D6000B70B881F991F5A95A9F780959095BC01CC
:101D7000CD01089597FB072E16F4009406D077FD49
:101D800008D0E4DF07FC05D03EF4909581959F4F85
:101D90000895709561957F4F0895A1E21A2EAA1BB0
:101DA000BB1BFD010DC0AA1FBB1FEE1FFF1FA2170B
:101DB000B307E407F50720F0A21BB30BE40BF50B08
:101DC000661F771F881F991F1A9469F76095709591
:101DD000809590959B01AC01BD01CF010895052E22
:101DE00097FB16F400940FD057FD05D0D6DF07FC03
:101DF00002D046F408C050954095309521953F4F4C
:101E00004F4F5F4F089590958095709561957F4FE6
:101E10008F4F9F4F0895EE0FFF1F0590F491E02D17
:101E2000099481E090E0F894F4C5FC018191861753
:101E300021F08823D9F7992708953197CF01089584
:101E4000FB0151915523A9F0BF01DC014D914517CC
:101E50004111E1F759F4CD010190002049F04D9175
:101E600040154111C9F3FB014111EFCF81E090E032
:101E700001970895AEE0B0E0EFE3FFE092C50D8971
:101E80001E8986E08C831A8309838FEF9FE79E83E8
:101E90008D83AE01475E5F4F6F89788DCE010196CD
:101EA0006BD02F813885F801E20FF31F10822E9638
:101EB000E4E093C56627772722C2FC01882799278B
:101EC000E89421912032E9F3293010F02E30C8F344
:101ED0002B3239F02D3231F4689403C025D0820FB3
:101EE000911D219120532A30C8F31EF490958195BD
:101EF0009F4F0895FB0155915523A9F0BF01DC01C7
:101F00004D9145174111E1F759F4CD01059000209D
:101F100049F04D9140154111C9F3FB014111EFCF3B
:101F200081E090E0019708957AE0979F902D879F38
:101F3000802D910D11240895AEE0B0E0E1EAFFE0BC
:101F400030C50D891E898EE08C831A8309838FEF3B
:101F50009FE79E838D83AE01475E5F4F6F89788DCB
:101F6000CE01019609D02F813885F801E20FF31FC9
:101F700010822E96E4E031C5ACE0B0E0E1ECFFE089
:101F800002C57C016B018A01FC01178216828381E4
:101F900081FFB0C1CE0101964C01F7019381F6019A
:101FA00093FD859193FF81916F01882309F49EC170
:101FB000853239F493FD859193FF81916F018532CC
:101FC00021F4B70190E023D3E8CF512C312C20E04D
:101FD0002032A0F48B3269F030F4803259F0833231
:101FE00069F420612CC08D3239F0803339F42160DE
:101FF00026C02260246023C0286021C027FD27C09E
:1020000030ED380F3A3078F426FF06C0FAE05F9ED4
:10201000300D1124532E13C08AE0389E300D112448
:10202000332E20620CC08E3221F426FD5FC1206465
:1020300006C08C3611F4206802C0883641F4F601DF
:1020400093FD859193FF81916F018111C1CF982FED
:102050009F7D9554933028F40C5F1F4FFFE3F98365
:102060000DC0833631F0833771F0833509F057C0E6
:1020700021C0F801808189830E5F1F4F442443945F
:10208000512C540114C03801F2E06F0E711CF8019C
:10209000A080B18026FF03C0652D70E002C06FEF05
:1020A0007FEFC5012C87A8D22C0183012C852F77C7
:1020B000222E16C03801F2E06F0E711CF801A080CC
:1020C000B18026FF03C0652D70E002C06FEF7FEF87
:1020D000C5012C8786D22C012C852068222E8301F5
:1020E00023FC19C0832D90E048165906A0F4B701CF
:1020F00080E290E08CD23A94F5CFF50127FC8591EF
:1021000027FE81915F01B70190E081D231103A94AE
:10211000F1E04F1A51084114510479F7DEC08436BA
:1021200011F0893631F5F80127FF07C06081718110
:10213000828193810C5F1F4F08C060817181072EDF
:10214000000C880B990B0E5F1F4F2F76722E97FF96
:1021500009C090958095709561957F4F8F4F9F4FE7
:102160002068722E2AE030E0A40189D2A82EA81897
:1021700043C0853729F42F7EB22E2AE030E025C0F7
:10218000F22FF97FBF2E8F36C1F018F4883579F021
:10219000ADC0803719F0883721F0A8C02F2F2061FB
:1021A000B22EB4FE0DC08B2D8460B82E09C024FF62
:1021B0000AC09F2F9660B92E06C028E030E005C007
:1021C00020E130E002C020E132E0F801B7FE07C0B4
:1021D00060817181828193810C5F1F4F06C0608195
:1021E000718180E090E00E5F1F4FA40148D2A82EBD
:1021F000A818FB2DFF777F2E76FE0BC0372D3E7F74
:10220000A51450F474FE0AC072FC08C0372D3E7E3F
:1022100005C0BA2C372D03C0BA2C01C0B52C34FF31
:102220000DC0FE01EA0DF11D8081803311F4397E6D
:1022300009C032FF06C0B394B39404C0832F8678DC
:1022400009F0B39433FD12C030FF06C05A2CB3140A
:1022500018F4530C5B18B32CB31460F4B70180E28C
:1022600090E03C87D4D1B3943C85F6CFB31410F4FE
:102270003B1801C0312C34FF11C0B70180E390E05E
:102280003C87C5D13C8532FF16C031FD03C088E7CD
:1022900090E002C088E590E0B7010CC0832F8678FB
:1022A00051F031FF02C08BE201C080E237FD8DE2C8
:1022B000B70190E0ACD1A51430F4B70180E390E011
:1022C000A6D15A94F8CFAA94F401EA0DF11D8081A9
:1022D000B70190E09CD1A110F6CF332009F45DCE78
:1022E000B70180E290E093D13A94F7CFF70186816D
:1022F000978102C08FEF9FEF2C96E2E160C3A0E0D0
:10230000B0E0E4E8F1E143C3EC017B016115710544
:1023100019F0DB018D939C938E010F5F1F4F788026
:10232000872D90E03ED1892B11F0E801F5CFBDE279
:102330007B1205C00F5F1F4F7980C1E008C0EBE240
:102340007E1204C08E010E5F1F4F7980C0E06801CD
:10235000F1E0CF1AD10843E050E061EA71E0C60134
:1023600028D1892BE9F4680122E0C20ED11C45E096
:1023700050E06CE971E0C6011CD1892B21F46801A1
:1023800087E0C80ED11CE114F10419F0D701CD92F9
:10239000DC92C111F9C060E070E080E89FE7FDC009
:1023A00043E050E069E971E0C60103D1892B51F4A3
:1023B000E114F10409F4EDC00E5F1F4FF701118322
:1023C0000083E7C0680160E070E0CB0100E010E04E
:1023D000F601D0EDD70DDA3050F52C2F2260622EA9
:1023E0002C2F2870C2FF05C0211127C00F5F1F4F7F
:1023F00024C0222311F001501109A5E0B0E09B0197
:10240000AC01B7D24B015C01880C991CAA1CBB1C07
:10241000C501B4016D0F711D811D911D6839A9E9B8
:102420007A078A07A9E19A0740F0C66005C0DE3F37
:1024300051F4C3FD44C0C8606C2EBFEFCB1ADB0A59
:102440007080C62DC5CF2D2F2F7D2531C1F5408140
:102450004D3211F4C06106C04B3221F0319621E0BB
:1024600030E006C03296D60111964C9122E030E061
:10247000A0EDA40FAA3018F0E21BF30B20C040E03F
:1024800050E04038BCE05B075CF49A01220F331F38
:10249000220F331F420F531F440F551F4A0F511D68
:1024A0003196DF0111972C91A0EDA20FAA3048F3CD
:1024B000C4FF03C0519541955109040F151FC1FF79
:1024C00007C0E114F10421F03197D701ED93FC939B
:1024D00038D1C370C33019F06B017C0106C06B01A9
:1024E0007C01F7FAF094F7F8F09420E030E0A901CD
:1024F000C701B60122D1882309F443C017FF06C0E3
:10250000119501951109C8EBD1E002C0C0EDD1E0F1
:102510005E01B8E1AB1AB1084601BE2DAF2D90E2C5
:10252000E92EF12C0E151F057CF0FE012591359149
:1025300045915491B4018B2F9A2F64D14B01B82F40
:10254000A92F0E191F09EECF2497F594E794CA1509
:10255000DB0541F76401EB2EFA2E8E2D880F8F2DAF
:10256000881F8F3F41F020E030E0A901C701B6018C
:10257000E4D0811106C082E290E090930C03809336
:102580000B03C701B60109C060E070E080E89FEF6F
:1025900004C060E070E080EC9FE7CDB7DEB7EEE00E
:1025A00012C2911192C1803219F089508550D0F732
:1025B0000895FB01DC014150504088F08D91813439
:1025C0001CF08B350CF4805E659161341CF06B352A
:1025D0000CF4605E861B611171F3990B0895881BE2
:1025E000FCCFFC010590615070400110D8F7809538
:1025F00090958E0F9F1F0895FC01615070400190CF
:102600000110D8F7809590958E0F9F1F08950F9316
:102610001F93CF93DF93FB01238121FD03C08FEF35
:102620009FEF28C022FF16C0468157812481358143
:102630004217530744F4A081B1819D012F5F3F4FA2
:10264000318320838C93268137812F5F3F4F3783DF
:10265000268310C0EB01092F182F0084F185E02D8F
:102660000995892BE1F68E819F8101969F838E8348
:10267000812F902FDF91CF911F910F910895FA0133
:10268000AA27283051F1203181F1E8946F936E7FB1
:102690006E5F7F4F8F4F9F4FAF4FB1E03ED0B4E0A2
:1026A0003CD0670F781F891F9A1FA11D680F791FE3
:1026B0008A1F911DA11D6A0F711D811D911DA11DF4
:1026C00020D009F468943F912AE0269F1124301904
:1026D000305D3193DEF6CF010895462F4770405D9F
:1026E0004193B3E00FD0C9F7F6CF462F4F70405D4E
:1026F0004A3318F0495D31FD4052419302D0A9F7A9
:10270000EACFB4E0A6959795879577956795BA95A2
:10271000C9F700976105710508959B01AC010A2E68
:1027200006945795479537952795BA95C9F7620F3F
:10273000731F841F951FA01D089540D008F481E0E9
:102740000895E89409C097FB3EF4909580957095A4
:1027500061957F4F8F4F9F4F9923A9F0F92F96E9ED
:10276000BB279395F695879577956795B795F11162
:10277000F8CFFAF4BB0F11F460FF1BC06F5F7F4FFF
:102780008F4F9F4F16C0882311F096E911C0772311
:1027900021F09EE8872F762F05C0662371F096E81A
:1027A000862F70E060E02AF09A95660F771F881FE9
:1027B000DAF7880F9695879597F90895990F00088D
:1027C000550FAA0BE0E8FEEF16161706E807F90703
:1027D000C0F012161306E407F50798F0621B730B9E
:1027E000840B950B39F40A2661F0232B242B252B1F
:1027F00021F408950A2609F4A140A6958FEF811DC2
:10280000811D08950BD07BC06CD028F071D018F0DA
:10281000952309F05DC062C01124A5C081D0A0F34A
:10282000959FD1F3950F50E0551F629FF001729F65
:10283000BB27F00DB11D639FAA27F00DB11DAA1F84
:10284000649F6627B00DA11D661F829F2227B00DD1
:10285000A11D621F739FB00DA11D621F839FA00D5C
:10286000611D221F749F3327A00D611D231F849FAC
:10287000600D211D822F762F6A2F11249F57504003
:102880008AF0E1F088234AF0EE0FFF1FBB1F661F9E
:10289000771F881F91505040A9F79E3F510570F057
:1028A00017C061C05F3FECF3983EDCF386957795E7
:1028B0006795B795F795E7959F5FC1F7FE2B880F52
:1028C000911D9695879597F90895992788270895DA
:1028D00097F99F6780E870E060E008959FEF80ECD3
:1028E000089500240A941616170618060906089576
:1028F00000240A9412161306140605060895092EDC
:102900000394000C11F4882352F0BB0F40F4BF2B4A
:1029100011F460FF04C06F5F7F4F8F4F9F4F08958A
:1029200057FD9058440F551F59F05F3F71F0479580
:10293000880F97FB991F61F09F3F79F08795089565
:10294000121613061406551FF2CF4695F1DF08C084
:10295000161617061806991FF1CF869571056105A1
:1029600008940895E894BB2766277727CB0197F949
:10297000089540D0A59F900DB49F900DA49F800D09
:10298000911D112408952F923F924F925F926F9262
:102990007F928F929F92AF92BF92CF92DF92EF92EF
:1029A000FF920F931F93CF93DF93CDB7DEB7CA1B70
:1029B000DB0B0FB6F894DEBF0FBECDBF09942A889B
:1029C000398848885F846E847D848C849B84AA8443
:1029D000B984C884DF80EE80FD800C811B81AA81D0
:1029E000B981CE0FD11D0FB6F894DEBF0FBECDBF9B
:1029F000ED010895A29FB001B39FC001A39F700D88
:102A0000811D1124911DB29F700D811D1124911DF6
:062A10000895F894FFCFC9
:102A160000C20100009600009B01A001A601000073
:102A26000000F109DE09520AD009D709D409D109F3
:102A3600000000009C0A260A550AE20A860A640A71
:102A4600780A000000004705DC0543051209B603B5
:102A5600F302C60274014E011C03E00697028908C0
:102A66000908BA035704C2089A013101ED038E051D
:102A760076077A09B503A903A703A503A003415462
:102A8600490D0041544C500D0030340D0041545452
:102A9600454D500D00415441434C0D00415447599A
:102AA600524F0D00343120004F4B0041545A0D0057
:102AB600415445300D00415448300D004E4F2044DE
:102AC60041544100343300303930320D0041545204
:102AD600560D0025303258253032580D00415442EB
:042AE6005231200049
:00000001FF
